:100000000C9473000C949B000C949B000C949B002C
:100010000C949B000C949B000C949B000C949B00F4
:100020000C949B000C949B000C949B000C949B00E4
:100030000C949B000C949B000C949B000C949B00D4
:100040000C94D2050C949B000C94A0050C947A059A
:100050000C949B000C949B000C949B000C949B00B4
:100060000C949B000C949B003F065B4F666D7D07D4
:100070007F6F777C395E7971BF86DBCFE6EDFD87D8
:10008000FFEFF7FCB9DEF9F10040000000002400AA
:1000900027002A0000000000250028002B00000097
:1000A00000002300260029000404040404040404BE
:1000B0000202020202020303030303030102040813
:1000C00010204080010204081020010204081020C2
:1000D0000000000800020100000304070000000007
:1000E000000000001C0611241FBECFEFD8E0DEBFC9
:1000F000CDBF11E0A0E0B1E0E4E3F6E102C005907D
:100100000D92A031B107D9F721E0A0E1B1E001C023
:100110001D92A03DB207E1F710E0C3E7D0E004C0B4
:100120002197FE010E94C008C237D107C9F70E947B
:1001300085060C94180B0C940000CF92DF92EF927E
:10014000FF920F931F93CF93DF936C017A018B0182
:10015000C0E0D0E0CE15DF0589F0D8016D918D01AA
:10016000D601ED91FC910190F081E02DC601099539
:10017000892B11F47E0102C02196ECCFC701DF91DB
:10018000CF911F910F91FF90EF90DF90CF90089546
:10019000FC01918D828D981761F0828DDF01A80F8F
:1001A000B11D5D968C91928D9F5F9F73928F90E0B1
:1001B00008958FEF9FEF0895FC01918D828D981720
:1001C00031F0828DE80FF11D858D90E008958FEF5D
:1001D0009FEF0895FC01918D228D892F90E0805C26
:1001E0009F4F821B91098F739927089589E291E0AF
:1001F0000E94EA0021E0892B09F420E0822F089573
:10020000FC01848DDF01A80FB11DA35ABF4F2C91B3
:10021000848D90E001968F739927848FA689B78982
:100220002C93A089B1898C9180648C93938D848D5B
:10023000981306C00288F389E02D80818F7D80832A
:100240000895EF92FF920F931F93CF93DF93EC01EA
:1002500081E0888F9B8D8C8D981305C0E889F98982
:10026000808185FD24C0F62E0B8D10E00F5F1F4F9F
:100270000F731127E02E8C8DE8120CC00FB607FC0F
:10028000FACFE889F989808185FFF5CFCE010E94F8
:100290000001F1CF8B8DFE01E80FF11DE35AFF4FF6
:1002A000F0820B8FEA89FB898081806207C0EE892A
:1002B000FF896083E889F98980818064808381E097
:1002C00090E0DF91CF911F910F91FF90EF900895F3
:1002D000682F89E291E00C942101CF93DF93EC0128
:1002E000888D8823C9F0EA89FB89808185FD05C056
:1002F000A889B9898C9186FD0FC00FB607FCF5CF90
:10030000808185FFF2CFA889B9898C9185FFEDCFD7
:10031000CE010E940001E7CFDF91CF91089580E0E8
:1003200090E0892B29F00E94F60081110C940000C6
:100330000895833081F028F4813099F08230A1F063
:1003400008958730A9F08830B9F08430D1F48091D5
:1003500080008F7D03C0809180008F778093800024
:10036000089584B58F7702C084B58F7D84BD0895CC
:100370008091B0008F7703C08091B0008F7D809313
:10038000B0000895CF93DF93282F30E0F901E053B8
:10039000FF4F8491F901E454FF4FD491F901E855DE
:1003A000FF4FC491CC2391F081110E949901EC2F51
:1003B000F0E0EE0FFF1FE256FF4FA591B491EC91D4
:1003C000ED2381E090E021F480E002C080E090E045
:1003D000DF91CF9108951F93CF93DF93282F30E0C3
:1003E000F901E053FF4F8491F901E454FF4FD49198
:1003F000F901E855FF4FC491CC23C9F0162F8111A4
:100400000E949901EC2FF0E0EE0FFF1FEC56FF4F1A
:10041000A591B4918FB7F894111105C09C91ED2F5F
:10042000E095E92302C0EC91ED2BEC938FBFDF91B7
:10043000CF911F910895CF93DF9390E0FC01E45496
:10044000FF4F2491FC01E855FF4F8491882361F10F
:1004500090E0880F991FFC01E657FF4FC591D4919A
:10046000FC01EC56FF4FA591B491611109C09FB7F3
:10047000F8948881209582238883EC912E230BC0E9
:10048000623061F49FB7F8943881822F809583237E
:100490008883EC912E2B2C939FBF06C08FB7F894C6
:1004A000E8812E2B28838FBFDF91CF9108951F9372
:1004B000CF93DF93182FEB0161E00E941B0220977E
:1004C00011F460E004C0CF3FD10539F461E0812F21
:1004D000DF91CF911F910C94EB01E12FF0E0E053FD
:1004E000FF4FE491E330F9F048F4E130B9F0E23045
:1004F000A1F584B5806284BDC8BD34C0E730E9F0A1
:10050000E83019F1E43049F58091800080628093F1
:100510008000D0938B00C0938A0024C084B580688B
:1005200084BDC7BD1FC0809180008068809380001B
:10053000D0938900C093880015C08091B000806876
:100540008093B000C093B3000DC08091B000806272
:100550008093B000C093B40005C0C038D1050CF042
:10056000B5CFAFCFDF91CF911F910895CF93DF9398
:100570008F3F910519F014F08FEF90E0EC01C1303E
:100580008FEFD80714F4C1E0DFEF8091C80190919C
:10059000C9018C179D07E1F0D093C901C093C80130
:1005A0008091C601D7FD07C061E00E94EB018091F8
:1005B000C701BE0109C060E00E94EB018091C70144
:1005C000662777276C1B7D0BDF91CF910C94570228
:1005D000DF91CF9108958E3008F08E50877080643F
:1005E00080937C0080917A00806480937A0080916F
:1005F0007A0086FDFCCF809178002091790090E010
:10060000922B08953FB7F8948091150190911601AF
:10061000A0911701B091180126B5A89B05C02F3FE6
:1006200019F00196A11DB11D3FBFBA2FA92F982F18
:100630008827820F911DA11DB11DBC01CD0142E093
:10064000660F771F881F991F4A95D1F708958F92DB
:100650009F92AF92BF92CF92DF92EF92FF926B0187
:100660007C010E9402034B015C01C114D104E1042E
:10067000F104F1F00E940203DC01CB018819990911
:10068000AA09BB09883E9340A105B10570F321E09A
:10069000C21AD108E108F10888EE880E83E0981E9E
:1006A000A11CB11CC114D104E104F10419F7DDCF80
:1006B000FF90EF90DF90CF90BF90AF909F908F9082
:1006C0000895CF93DF93EC0160E08C810E94EB01F1
:1006D00060E08D810E94EB0161E08C810E94EB0162
:1006E00061E08D81DF91CF910C94EB01CF93DF938B
:1006F000EC0161E08C810E94EB0161E08D810E9440
:10070000EB0160E08D810E94EB0160E08C81DF9164
:10071000CF910C94EB010F931F93CF93DF93EC01D8
:10072000062F18E060E08C810E94EB0100FF02C000
:1007300061E001C060E08D810E94EB01069561E0FF
:100740008C810E94EB01115069F760E08C810E945E
:10075000EB0161E08D810E94EB0161E08C810E94E0
:10076000EB0160E08D810E941B0218EC8D810E94DC
:10077000C201892B59F01150C9F761E08D810E94A7
:100780001B0260E08D810E94EB01EFCF61E08D8163
:10079000DF91CF911F910F910C941B02CF92DF92AA
:1007A000EF92FF920F931F93CF93DF9300D000D06F
:1007B000CDB7DEB78C01CE0101967C01FC0184E04F
:1007C0008E0DDB019D91BD0191938E13FACFD70160
:1007D00090E22C91223208F09C93EC91F0E0E859E1
:1007E000FF4FE491ED938A13F4CFC8010E94760382
:1007F00060E4C8010E948B03C8010E946103C80124
:100800000E947603F8016181C8010E948B036E018A
:10081000F5E0CF0ED11CD6016E916D01C8010E948A
:100820008B03CE14DF04B9F7C8010E946103C8012D
:100830000E947603F8016281C8010E948B03C801FF
:100840000F900F900F900F90DF91CF911F910F910C
:10085000FF90EF90DF90CF900C9461032F923F9226
:100860004F925F926F927F928F929F92AF92BF92C0
:10087000CF92DF92EF92FF920F931F93CF93DF936C
:10088000CDB7DEB72A970FB6F894DEBF0FBECDBF47
:100890006B017C012B013C0177FA709477F870941E
:1008A00020E030E0A9010E94420987FF05C0942C96
:1008B000852C362C272C04C09C2C8D2C3E2C2F2CC8
:1008C00010E08AE0A82EB12C20E03EE34CE156E493
:1008D000C701B6010E94A10A87FD07C080E28D838F
:1008E0008E838F838EE08887B7C020E030EE49E7A3
:1008F00054ECC701B6010E94420918167CF720E0AB
:1009000030E0A901C701B6010E944209082F001F6B
:100910000027001F712C60E070E080E09FE37116FB
:1009200041F020E030E040E251E40E944709739436
:10093000F6CF9B01AC01692D782D832D922D0E945D
:10094000D6082B013C010E94C0097A8769879B0168
:1009500040E0C901B5010E948D08A1E0B0E0AC0FF4
:10096000BD1FA40FB11D8AE0689F201911242C938C
:100970004F5F9B01672B69F7842F800F982F910F92
:10098000953018F014E0181B9FCF80E28D838E8382
:100990008F83888784E0891B002351F0A5E0B0E0B5
:1009A000AC0FBD1FA80FB11D81E28C9385E0891BA0
:1009B000840F082F982F941B442371F0A5E0B0E01A
:1009C000AC0FBD1FA90FB11D9E01240F311DF901F0
:1009D00090819C934150EDCF1123F1F129853A8507
:1009E000B90180E090E00E94EF099B01AC01C301D6
:1009F000B2010E94D508E02FF0E0319725E030E009
:100A00002C0F3D1FE20FF31F2081205F2083100F6A
:100A1000011711F120E030E040E251E40E94A60A03
:100A20006B017C010E94B909BB24B394B00EE5E0D0
:100A3000F0E0EC0FFD1FE00FF11D6083072E000CAE
:100A4000880B990B0E94F1099B01AC01C701B6010B
:100A50000E94D5080B2DDCCFBE016B5F7F4F8AEC67
:100A600091E00E94CE032A960FB6F894DEBF0FBE27
:100A7000CDBFDF91CF911F910F91FF90EF90DF904D
:100A8000CF90BF90AF909F908F907F906F905F902E
:100A90004F903F902F9008958091260190912701CB
:100AA0001816190614F461E001C060E08EE00C94A1
:100AB000EB01882339F084E690E00E94B6028CE9CD
:100AC0009FEF06C08CE99FEF0E94B60284E690E09B
:100AD0000E94B6026CE271E080E090E00E94270381
:100AE00080E090E00E94B60280E090E00C94B602B4
:100AF0000E94130B1F920F920FB60F9211242F9387
:100B00003F934F935F936F937F938F939F93AF9395
:100B1000BF93EF93FF9389E291E00E940001FF9160
:100B2000EF91BF91AF919F918F917F916F915F9165
:100B30004F913F912F910F900FBE0F901F901895DE
:100B40001F920F920FB60F9211242F938F939F93A2
:100B5000EF93FF93E0913901F0913A018081E091A8
:100B60003F01F091400182FD12C0908180914201CD
:100B70008F5F8F7320914301821751F0E091420102
:100B8000F0E0E75DFE4F958F8093420101C08081C8
:100B9000FF91EF919F918F912F910F900FBE0F902A
:100BA0001F9018951F920F920FB60F9211242F933A
:100BB0003F938F939F93AF93BF9380911101909137
:100BC0001201A0911301B09114013091100123E0A2
:100BD000230F2D3720F40196A11DB11D05C026E875
:100BE000230F0296A11DB11D2093100180931101C6
:100BF00090931201A0931301B093140180911501F9
:100C000090911601A0911701B09118010196A11DB4
:100C1000B11D8093150190931601A0931701B09315
:100C20001801BF91AF919F918F913F912F910F909C
:100C30000FBE0F901F9018950F931F93CF93DF93C4
:100C400000D000D0CDB7DEB7E9E2F1E01382128226
:100C500088EE93E0A0E0B0E084839583A683B78319
:100C600084E091E09183808385EC90E09587848790
:100C700084EC90E09787868780EC90E0918B808B66
:100C800081EC90E0938B828B82EC90E0958B848B4F
:100C900086EC90E0978B868B118E128E138E148EBD
:100CA0000AEC11E08AE0F80184838BE0858361E03F
:100CB0008AE00E941B0261E0F80185810E941B020C
:100CC00080E4F801808380EC81838AE8828380E27B
:100CD00089838A838B838C83BE016F5F7F4FC801BA
:100CE0000E94CE03E6ECF1E087E0808386E081831A
:100CF000808161E00E941B020F900F900F900F9077
:100D0000DF91CF911F910F910895CF93DF9300D082
:100D100000D0CDB7DEB7789484B5826084BD84B549
:100D2000816084BD85B5826085BD85B5816085BDE6
:100D300080916E00816080936E001092810080919E
:100D40008100826080938100809181008160809326
:100D50008100809180008160809380008091B1004B
:100D600084608093B1008091B00081608093B00076
:100D700080917A00846080937A0080917A0082600A
:100D800080937A0080917A00816080937A008091CC
:100D90007A00806880937A001092C100E091390156
:100DA000F0913A0182E08083E0913501F0913601C3
:100DB0001082E0913701F09138018FEC808310921E
:100DC0004101E0913D01F0913E0186E08083E09198
:100DD0003B01F0913C01808180618083E0913B0187
:100DE000F0913C01808188608083E0913B01F0912B
:100DF0003C01808180688083E0913B01F0913C015F
:100E000080818F7D808362E082E00E941B0262E02D
:100E100081E10E941B0261E08EE00E941B0261E002
:100E20008FE00E941B0210922701109226018DEC88
:100E30009DEDA0E0B0E080931D0190931E01A09372
:100E40001F01B093200110922201109223011092F1
:100E500024011092250110921C0110921B01109286
:100E60001A01109219011092210181E0809328014A
:100E7000FF24F39404E610E080E2E82E809128013C
:100E8000882329F185E10E94EB02B8010E94A108A4
:100E9000BC01990F880B990B0E94F1090E942E0446
:100EA00085E10E94EB02B8010E94A10861E04F9722
:100EB00034F08EE00E94EB0160E08FE005C08FE02F
:100EC0000E94EB0160E08EE00E94EB017EC082E0B8
:100ED0000E94C201019719F410921C0121C0809157
:100EE0001C0181111BC080911A018F2580931A016A
:100EF0008823A1F080911901882381F010921A01B2
:100F00001092190180912601909127011816190657
:100F10002CF401979093270180932601F0921C01F5
:100F200081E10E94C201019719F410921B013FC098
:100F300080911B01811139C0809119018F25809307
:100F4000190190911A01992381F1882371F110926E
:100F50001A011092190160912601709127016F5FAB
:100F60007F4F7093270160932601072E000C880B9A
:100F7000990B0E94F1090E942E040E944C05809159
:100F80002101882391F082E390E00E946801109291
:100F9000210181E00E94590560E777E180E090E05F
:100FA0000E94270380E00E945905F0921B010E94D5
:100FB0004C056091260170912701072E000C880BCB
:100FC000990B0E94F1090E942E0489E291E00E948F
:100FD000EA00181619060CF09DC089E291E00E9403
:100FE000C800C0974C01990FAA08BB0820912201A4
:100FF000309123014091240150912501AAE0B0E0F5
:101000000E94B508DC01CB01880D991DAA1DBB1DEE
:101010008093220190932301A0932401B093250192
:10102000803127E29207A105B10508F473C082312F
:1010300027E29207A105B10529F4F092210184E38A
:1010400090E05EC080901D0190901E01A0901F0155
:10105000B090200188159905AA05BB0551F480912F
:101060002801882319F085E390E04AC086E390E0E8
:1010700047C0833127E29207A105B10549F5809168
:1010800028018F25809328011092270110922601B4
:1010900010921C0110921B0110921A01109219015A
:1010A00010922101E982EA82EB82EC82BE016F5F3D
:1010B0007F4F8AEC91E00E94CE0360E08FE00E94B7
:1010C000EB0160E08EE00E94EB0183E390E018C04A
:1010D00084319742A105B10589F482E390E00E9432
:1010E000680181E00E94590560E777E180E090E0C7
:1010F0000E94270380E00E94590504C080E390E02D
:101100000E94680110922201109223011092240182
:10111000109225010E948F01B1CEAA1BBB1B51E189
:1011200007C0AA1FBB1FA617B70710F0A61BB70B57
:10113000881F991F5A95A9F780959095BC01CD01FC
:10114000089597FB072E16F4009407D077FD09D079
:101150000E948D0807FC05D03EF4909581959F4F25
:101160000895709561957F4F08950E94C608A59FC8
:10117000900DB49F900DA49F800D911D1124089592
:10118000EE0FFF1F0590F491E02D0994A29FB0018E
:10119000B39FC001A39F700D811D1124911DB29FAB
:1011A000700D811D1124911D08955058BB27AA2749
:1011B0000E94ED080C94670A0E94590A38F00E94B8
:1011C000600A20F039F49F3F19F426F40C94560A73
:1011D0000EF4E095E7FB0C94500AE92F0E94780A80
:1011E00058F3BA17620773078407950720F079F45C
:1011F000A6F50C949A0A0EF4E0950B2EBA2FA02DAA
:101200000B01B90190010C01CA01A0011124FF27B3
:10121000591B99F0593F50F4503E68F11A16F040AE
:10122000A22F232F342F4427585FF3CF46953795AD
:101230002795A795F0405395C9F77EF41F16BA0B72
:10124000620B730B840BBAF09150A1F0FF0FBB1F20
:10125000661F771F881FC2F70EC0BA0F621F731F69
:10126000841F48F4879577956795B795F7959E3FC6
:1012700008F0B0CF9395880F08F09927EE0F979557
:10128000879508950E942C0A08F481E008950E9431
:101290005B090C94670A0E94600A58F00E94590A80
:1012A00040F029F45F3F29F00C94500A51110C943E
:1012B0009B0A0C94560A0E94780A68F39923B1F3AA
:1012C000552391F3951B550BBB27AA27621773076C
:1012D000840738F09F5F5F4F220F331F441FAA1F00
:1012E000A9F335D00E2E3AF0E0E832D091505040BC
:1012F000E695001CCAF72BD0FE2F29D0660F771F6A
:10130000881FBB1F261737074807AB07B0E809F04F
:10131000BB0B802DBF01FF2793585F4F3AF09E3FD4
:10132000510578F00C94500A0C949B0A5F3FE4F34B
:10133000983ED4F3869577956795B795F7959F5F17
:10134000C9F7880F911D9695879597F90895E1E063
:10135000660F771F881FBB1F621773078407BA07C2
:1013600020F0621B730B840BBA0BEE1F88F7E0951D
:1013700008950E94C0096894B1110C949B0A0895C5
:101380000E94800A88F09F5798F0B92F9927B7518B
:10139000B0F0E1F0660F771F881F991F1AF0BA9519
:1013A000C9F714C0B13091F00E949A0AB1E00895D3
:1013B0000C949A0A672F782F8827B85F39F0B93FC5
:1013C000CCF3869577956795B395D9F73EF49095CC
:1013D0008095709561957F4F8F4F9F4F0895E8944A
:1013E00009C097FB3EF490958095709561957F4F6D
:1013F0008F4F9F4F9923A9F0F92F96E9BB2793951B
:10140000F695879577956795B795F111F8CFFAF42A
:10141000BB0F11F460FF1BC06F5F7F4F8F4F9F4F5B
:1014200016C0882311F096E911C0772321F09EE8B9
:10143000872F762F05C0662371F096E8862F70E01F
:1014400060E02AF09A95660F771F881FDAF7880FF9
:101450009695879597F90895990F0008550FAA0B4F
:10146000E0E8FEEF16161706E807F907C0F01216B7
:101470001306E407F50798F0621B730B840B950BBA
:1014800039F40A2661F0232B242B252B21F408950F
:101490000A2609F4A140A6958FEF811D811D0895AC
:1014A00097F99F6780E870E060E008959FEF80EC17
:1014B000089500240A9416161706180609060895BA
:1014C00000240A9412161306140605060895092E20
:1014D0000394000C11F4882352F0BB0F40F4BF2B8F
:1014E00011F460FF04C06F5F7F4F8F4F9F4F0895CF
:1014F00057FD9058440F551F59F05F3F71F04795C5
:10150000880F97FB991F61F09F3F79F087950895A9
:10151000121613061406551FF2CF4695F1DF08C0C8
:10152000161617061806991FF1CF869571056105E5
:1015300008940895E894BB2766277727CB0197F98D
:1015400008950E942C0A08F48FEF08950E94B90AAA
:101550000C94670A0E94590A38F00E94600A20F031
:10156000952311F00C94500A0C94560A11240C94F3
:101570009B0A0E94780A70F3959FC1F3950F50E083
:10158000551F629FF001729FBB27F00DB11D639F35
:10159000AA27F00DB11DAA1F649F6627B00DA11DDB
:1015A000661F829F2227B00DA11D621F739FB00D81
:1015B000A11D621F839FA00D611D221F749F3327F1
:1015C000A00D611D231F849F600D211D822F762F8A
:1015D0006A2F11249F5750409AF0F1F088234AF067
:1015E000EE0FFF1FBB1F661F771F881F91505040D3
:1015F000A9F79E3F510580F00C94500A0C949B0A69
:101600005F3FE4F3983ED4F3869577956795B79559
:10161000F795E7959F5FC1F7FE2B880F911D969573
:10162000879597F9089581E090E0F8940C94180B51
:04163000F894FFCF5C
:101634000000000021019D00EA00C800DC006D01EB
:00000001FF
